:020000020000FC
:1000A6007C8A92A27C0242FE0202468A92926244B4
:1000B6008292926C182848FE08E4A2A2A29C3C52A6
:1000C60092920C808E90A0C06C9292926C609292EA
:1000D60094780000020000000000000000004200CA
:1000E60000101010101000000000000000000000BA
:1000F600FEFEFEFEFE7E9090907EFE9292926C7CBC
:1001060082828244FE8282827CFE92929282FE905B
:100116009090807C82828A4CFE101010FE0082FE37
:10012600820004020202FCFE10284482FE02020241
:1001360002FE403040FEFE201008FE7C8282827C59
:10014600FE909090607C828A847AFE909894626495
:100156009292924C8080FE8080FC020202FCE018A3
:100166000618E0FE041804FEC6281028C6C0201E85
:1001760020C0868A92A2C20000000000584D4F445B
:100186003F424554413F313A38FF4C4F573F424179
:100196005454FFFF3F3F3F3F3F3F3F3FFFFF4D4F21
:1001A600443FFFFF524F463F3F3FFFFF4143453F1E
:1001B6003FFF4649583F3F3FFFFF5452473FFFFF2F
:1001C6004143453FFFFF54524740FFFF41434540EF
:1001D600FFFF3F3F3FFF524E44FF534F4C3F3FFF11
:1001E6003F4F4EFF4F4646FF444C41593F3FFFFFAE
:1001F6004457454C3F3FFFFF3F3F3F3F3F3FFFFFD9
:100206003FFF4453503F42524954FFFF53454D4927
:10021600FF52454C53FF42525354FF46554C4CFF38
:100226003F4E584CFF3F505350FF3F4D494CFF48FF
:10023600595052FF50523D54FFFF30FF31FF32FFFD
:1002460033FF34FF35FF36FF37FF38FF39FFDACE8D
:1002560018D22F2D01C020E037D036D0969A0895B7
:1002660002D0969A08952F933F934F935F93C89524
:100276003196202D2F3F01F130E3231BBF2FAE2FE8
:10028600F0E0E6EA6894E7D130E0C8953196202D93
:100296001DD033953530C9F7EA2FFB2F07FFE7CF7F
:1002A60050EA552E829B08C0849B06C05520D1F784
:1002B6005520C1F7969ADBCF5F914F913F912F91D1
:1002C6000895C29AC2980895C49A01C0C498C29863
:1002D600969848E0C39820FDC39AF3DFCBD14A95A0
:1002E6004030C1F708958ECEB19BBFCEAF93BF937A
:1002F60029E0A9E0E199FECF2EBB3D913DBBE29AF4
:10030600E19A2395A331B1F7BF91AF910895B19BBF
:10031600ACCEAF93BF9329E0A9E02EBBE09A3DB3E4
:100326003D932395A331C9F7BF91AF9108956ACE46
:1003360080E08DBD8CBD80E489BF82E08EBD81E00A
:100346008BBD84EF8ABD08958F939F9380E08DBD0A
:100356008CBD882009F4939858125A9468126A94AE
:1003660078127A9498129A9488128A949FE090232D
:10037600983041F405FF9398222019F0222009F0C5
:100386002A9403C0992009F4332407FD04C0849BF2
:1003960005C0859B20D09F918F911895B19B65CE06
:1003A60057DF38D06ED157DF8FE08023883049F48D
:1003B6004FDF442466277727882799272224D0E011
:1003C600C6E1D5D091DF442455279F918F911F9088
:1003D6001F90789472C11196B43019F49CD0BB2743
:1003E600AA27939A00000000000000009398089541
:1003F60009CEC3D0A394CAD0DDD02DC02FE02023D0
:100406002230B1F02830E9F0089520E4202320348A
:10041600B9F1089519D1B4D0ADD0849B1BC0C59A4B
:10042600B59B02C0859B9AC00FD1829BE7CFF5CFC3
:10043600A7D0849B0FC0859B63C0DED0829B0895A6
:10044600F8CF9ED0849B06C0859B5ED0E6D0829B6B
:100456000895F8CF8FD0849B09C0C59AB59B02C07A
:10046600859BC7CFECD0829B9FC0F5CF9DD082D015
:10047600849B0FC0859B4FD0D6D0829BC6CFF8CF2A
:100486007FD0849B06C0859B37C0B1D0829B0895E0
:10049600F8CFC59AB59B12C06DD0849B06C0859BCC
:1004A60049C0B6D0829B0895F8CF64D0849B06C01D
:1004B600859B4CC097D0829B77C0F8CF75D05AD019
:1004C600849B11C0829903C0ECECF1E002C0E0EC21
:1004D600F1E0C9DEB69B03C0E2EDF1E002C0E6EC56
:1004E600F1E0BEDEEDCF46D0849B94CF859B1AD03B
:1004F60075D0829B0895F8CF40D0D39450D0C1CF09
:100506003CD0139540D095CF38D005FD02C000628F
:1005160008950F7D089531D006FD02C00064089548
:100526000F7B08952AD0F6942FEFF4FEF22EFA945C
:100536008FDE089522D0B3942C2D2E192B1508F496
:10054600BB242FE52B1508F4BB24A7CF16D0E394C4
:100556002EE12E1510F425E0E22EA8CF0ED003953D
:100566002FE02023293009F4021B57CF4BCD829B65
:10057600FECF0895849BFECF0895859BFECF0895F8
:10058600829BFECF089513FD107F089528E02A155B
:1005960018F42FE12A1510F428E0A22E089529E078
:1005A600D21608F0DD2408952C2D2E192B1508F4EB
:1005B600B22E08952AEF3A2D0AD0542F220F220F79
:1005C60006D0550F550F540FC52E08953AE044270F
:1005D600231718F0231B4395FBCF0895E8E0F2E0BC
:1005E6003FDE0895E6EFF1E03EDE2E2D63C0EEEE2F
:1005F600F1E039DE2D2D5EC0E8EDF1E034DE27E0D6
:1006060021232395239541D0ECEDF1E029DE0895D1
:10061600E8EBF1E028DE2B2D4DC0E0EEF1E023DE25
:1006260005FF09C005C0E2EBF1E01DDE06FF03C0D1
:10063600E6EEF1E002C0EAEEF1E012DE0895EAEA43
:10064600F1E011DE2A2D36C0E4EAF1E00CDEE2E14B
:10065600F2E02FE02023203049F035962A95FBCF93
:10066600203019F032962A95FBCF08950EF0F8DD6A
:10067600E894089520FF889420FD0894279588948F
:100686000895EAE9F1E0ECDD0895A0DF322F242F8A
:1006960003D0232F0AD00895E0E4F2E0E1DF4030F2
:1006A60011F4E6E0F2E0DFDD0895E0E4F2E0D8DF01
:1006B600DADD0895EADFD5CDA5CC02FD18C001FD2F
:1006C60006C000FD03C003FD32C04DC051C000FD91
:1006D6000DC027E0212323952395421618F482990D
:1006E60044244BC0829BFECF4424F3CF46C001FD79
:1006F60015C000FD05C0232D243008F434C03DC0CC
:1007060023E0321608F42FC023E0421658F78299E8
:10071600442433C0829BFECF4424F2CF00FD04C0A4
:1007260022E0321688F71FC082991DC021C020E042
:10073600221219C0221217C02AEF222E49924424EF
:10074600CA3119F4CA3109F4C6E15527560F570FB5
:10075600580F590FA5160CF45A2DEEEFF1E083DD74
:10076600252F93DF7EDD829BFECF8299FECF07C0C9
:100776008299FECF829BFECF02C082999ECF06FF52
:100786000EC07D2CB69907C02CDE5E2C5520F1F7E5
:100796005520E1F792CF7720A9F7772099F76620C1
:1007A600F1F76620E1F76C2C8E2C939A2FE020232C
:1007B600263011F02AEF01C02DE7922E3394439490
:1007C600BB2061F0BB2051F05E2C5520F1F755207F
:0E07D600E1F75B2C5520F1F75520E1F76ECFCF
:0200000004C03A
:10000800A2C12FED2DBF2DEB28BB2CE327BB20E889
:1000180022BB28E421BBE8948AD178D1077D04FF6C
:1000280003C000272EE1F22EADD2B8D22FE52B1552
:1000380018F4B22E2EE1F22E25E02E1518F42EE13A
:100048002E1520F42DE0E22E2EE1F22E2EEFF212E4
:100058002EE7F2122EE3F2122EE1F212F22E95D2D0
:1000680088279927A6D20CD378940AD3F0D0B199CF
:1000780008C0E0E9F1E0F3D079D28299FDCF76D2D9
:10008800FFD20068E2E8F1E0EAD00F778299FECF6C
:08009800F7D2E0D06BD210C3D7
:00000001FF
